{
  "contractName": "Calculations",
  "abi": [
    {
      "inputs": [
        {
          "internalType": "uint256",
          "name": "_num1",
          "type": "uint256"
        },
        {
          "internalType": "uint256",
          "name": "_num2",
          "type": "uint256"
        }
      ],
      "stateMutability": "nonpayable",
      "type": "constructor"
    },
    {
      "inputs": [],
      "name": "num1",
      "outputs": [
        {
          "internalType": "uint256",
          "name": "",
          "type": "uint256"
        }
      ],
      "stateMutability": "view",
      "type": "function",
      "constant": true
    },
    {
      "inputs": [],
      "name": "num2",
      "outputs": [
        {
          "internalType": "uint256",
          "name": "",
          "type": "uint256"
        }
      ],
      "stateMutability": "view",
      "type": "function",
      "constant": true
    },
    {
      "inputs": [],
      "name": "addition1",
      "outputs": [
        {
          "internalType": "uint256",
          "name": "",
          "type": "uint256"
        }
      ],
      "stateMutability": "view",
      "type": "function",
      "constant": true
    },
    {
      "inputs": [
        {
          "internalType": "uint256",
          "name": "a",
          "type": "uint256"
        },
        {
          "internalType": "uint256",
          "name": "b",
          "type": "uint256"
        }
      ],
      "name": "addition2",
      "outputs": [
        {
          "internalType": "uint256",
          "name": "",
          "type": "uint256"
        }
      ],
      "stateMutability": "pure",
      "type": "function",
      "constant": true
    }
  ],
  "bytecode": "0x608060405234801561000f575f80fd5b5060405161018038038061018083398101604081905261002e9161003b565b5f9190915560015561005d565b5f806040838503121561004c575f80fd5b505080516020909101519092909150565b6101168061006a5f395ff3fe6080604052348015600e575f80fd5b50600436106044575f3560e01c806315d4266c1460485780633b9eac4b1460625780634d3e46e4146069578063f1d1643814606f575b5f80fd5b605060015481565b60405190815260200160405180910390f35b60505f5481565b6050607e565b6050607a36600460a3565b6091565b5f6001545f54608c919060c2565b905090565b5f609a828460c2565b90505b92915050565b5f806040838503121560b3575f80fd5b50508035926020909101359150565b80820180821115609d57634e487b7160e01b5f52601160045260245ffdfea26469706673582212204f3a9c424b84e05f96a1718d3e5dd34818f55b63b8a71a1aa51e7e23a43fd97664736f6c63430008140033",
  "immutableReferences": {},
  "source": "// SPDX-License-Identifier: MIT\npragma solidity ^0.8.0;\n\ncontract Calculations {\n    uint public num1;\n    uint public num2;\n\n    constructor(uint _num1, uint _num2) {\n        num1 = _num1;\n        num2 = _num2;\n    }\n\n    // View function (reads state)\n    function addition1() public view returns (uint) {\n        return num1 + num2;\n    }\n\n    // Pure function (no state access)\n    function addition2(uint a, uint b) public pure returns (uint) {\n        return a + b;\n    }\n}",
  "sourcePath": "C:\\Users\\Haita\\Downloads\\blockchain\\TP3-dApp\\TP3-dApp\\contracts\\Calculations.sol",
  "compiler": {
    "name": "solc",
    "version": "0.8.20+commit.a1b79de6.Emscripten.clang"
  },
  "schemaVersion": "3.4.16",
  "updatedAt": "2025-07-30T11:40:31.739Z",
  "networkType": "ethereum",
  "devdoc": {
    "kind": "dev",
    "methods": {},
    "version": 1
  },
  "userdoc": {
    "kind": "user",
    "methods": {},
    "version": 1
  }
}