{
  "contractName": "CurrencyConverter",
  "abi": [
    {
      "inputs": [
        {
          "internalType": "uint256",
          "name": "montantEther",
          "type": "uint256"
        }
      ],
      "name": "etherEnWei",
      "outputs": [
        {
          "internalType": "uint256",
          "name": "",
          "type": "uint256"
        }
      ],
      "stateMutability": "pure",
      "type": "function",
      "constant": true
    },
    {
      "inputs": [
        {
          "internalType": "uint256",
          "name": "montantWei",
          "type": "uint256"
        }
      ],
      "name": "weiEnEther",
      "outputs": [
        {
          "internalType": "uint256",
          "name": "",
          "type": "uint256"
        }
      ],
      "stateMutability": "pure",
      "type": "function",
      "constant": true
    }
  ],
  "bytecode": "0x608060405234801561000f575f80fd5b506101188061001d5f395ff3fe6080604052348015600e575f80fd5b50600436106030575f3560e01c806318b5d6e5146034578063b5fcda34146055575b5f80fd5b6043603f366004608c565b6064565b60405190815260200160405180910390f35b60436060366004608c565b607b565b5f6075670de0b6b3a76400008360a2565b92915050565b5f607582670de0b6b3a764000060c0565b5f60208284031215609b575f80fd5b5035919050565b5f8260bb57634e487b7160e01b5f52601260045260245ffd5b500490565b8082028115828204841417607557634e487b7160e01b5f52601160045260245ffdfea264697066735822122078784b0b21d6a562af0e7dbd479f1a01d815e1809f22e909f2c697fd0aa98d1d64736f6c63430008140033",
  "immutableReferences": {},
  "source": "// SPDX-License-Identifier: MIT\npragma solidity ^0.8.0;\n\ncontract CurrencyConverter {\n    // Ether to Wei (1 ether = 1e18 wei)\n    function etherEnWei(uint montantEther) public pure returns (uint) {\n        return montantEther * 1 ether;\n    }\n\n    // Wei to Ether\n    function weiEnEther(uint montantWei) public pure returns (uint) {\n        return montantWei / 1 ether;\n    }\n}",
  "sourcePath": "C:\\Users\\Haita\\Downloads\\blockchain\\TP3-dApp\\TP3-dApp\\contracts\\CurrencyConverter.sol",
  "compiler": {
    "name": "solc",
    "version": "0.8.20+commit.a1b79de6.Emscripten.clang"
  },
  "schemaVersion": "3.4.16",
  "updatedAt": "2025-07-30T11:40:31.743Z",
  "networkType": "ethereum",
  "devdoc": {
    "kind": "dev",
    "methods": {},
    "version": 1
  },
  "userdoc": {
    "kind": "user",
    "methods": {},
    "version": 1
  }
}