{
  "contractName": "GestionChaines",
  "abi": [
    {
      "inputs": [],
      "name": "message",
      "outputs": [
        {
          "internalType": "string",
          "name": "",
          "type": "string"
        }
      ],
      "stateMutability": "view",
      "type": "function",
      "constant": true
    },
    {
      "inputs": [
        {
          "internalType": "string",
          "name": "_message",
          "type": "string"
        }
      ],
      "name": "setMessage",
      "outputs": [],
      "stateMutability": "nonpayable",
      "type": "function"
    },
    {
      "inputs": [],
      "name": "getMessage",
      "outputs": [
        {
          "internalType": "string",
          "name": "",
          "type": "string"
        }
      ],
      "stateMutability": "view",
      "type": "function",
      "constant": true
    },
    {
      "inputs": [
        {
          "internalType": "string",
          "name": "a",
          "type": "string"
        },
        {
          "internalType": "string",
          "name": "b",
          "type": "string"
        }
      ],
      "name": "concatener",
      "outputs": [
        {
          "internalType": "string",
          "name": "",
          "type": "string"
        }
      ],
      "stateMutability": "pure",
      "type": "function",
      "constant": true
    },
    {
      "inputs": [
        {
          "internalType": "string",
          "name": "_texte",
          "type": "string"
        }
      ],
      "name": "concatenerAvec",
      "outputs": [
        {
          "internalType": "string",
          "name": "",
          "type": "string"
        }
      ],
      "stateMutability": "view",
      "type": "function",
      "constant": true
    },
    {
      "inputs": [
        {
          "internalType": "string",
          "name": "s",
          "type": "string"
        }
      ],
      "name": "longueur",
      "outputs": [
        {
          "internalType": "uint256",
          "name": "",
          "type": "uint256"
        }
      ],
      "stateMutability": "pure",
      "type": "function",
      "constant": true
    },
    {
      "inputs": [
        {
          "internalType": "string",
          "name": "a",
          "type": "string"
        },
        {
          "internalType": "string",
          "name": "b",
          "type": "string"
        }
      ],
      "name": "comparer",
      "outputs": [
        {
          "internalType": "bool",
          "name": "",
          "type": "bool"
        }
      ],
      "stateMutability": "pure",
      "type": "function",
      "constant": true
    }
  ],
  "bytecode": "0x608060405234801561000f575f80fd5b5061065a8061001d5f395ff3fe608060405234801561000f575f80fd5b506004361061007a575f3560e01c80634f759687116100585780634f759687146100ec5780639103ca331461010c578063ce6d41de1461011f578063e21f37ce14610127575f80fd5b806317646f891461007e578063368b8772146100b7578063413d4384146100cc575b5f80fd5b6100a261008c36600461034c565b8051602091820120825192909101919091201490565b60405190151581526020015b60405180910390f35b6100ca6100c53660046103ac565b61012f565b005b6100df6100da3660046103ac565b61013e565b6040516100ae9190610408565b6100fe6100fa3660046103ac565b5190565b6040519081526020016100ae565b6100df61011a36600461034c565b610169565b6100df610195565b6100df610224565b5f61013a82826104c0565b5050565b60605f8260405160200161015392919061057c565b6040516020818303038152906040529050919050565b6060828260405160200161017e9291906105ff565b604051602081830303815290604052905092915050565b60605f80546101a39061043a565b80601f01602080910402602001604051908101604052809291908181526020018280546101cf9061043a565b801561021a5780601f106101f15761010080835404028352916020019161021a565b820191905f5260205f20905b8154815290600101906020018083116101fd57829003601f168201915b5050505050905090565b5f80546102309061043a565b80601f016020809104026020016040519081016040528092919081815260200182805461025c9061043a565b80156102a75780601f1061027e576101008083540402835291602001916102a7565b820191905f5260205f20905b81548152906001019060200180831161028a57829003601f168201915b505050505081565b634e487b7160e01b5f52604160045260245ffd5b5f82601f8301126102d2575f80fd5b813567ffffffffffffffff808211156102ed576102ed6102af565b604051601f8301601f19908116603f01168101908282118183101715610315576103156102af565b8160405283815286602085880101111561032d575f80fd5b836020870160208301375f602085830101528094505050505092915050565b5f806040838503121561035d575f80fd5b823567ffffffffffffffff80821115610374575f80fd5b610380868387016102c3565b93506020850135915080821115610395575f80fd5b506103a2858286016102c3565b9150509250929050565b5f602082840312156103bc575f80fd5b813567ffffffffffffffff8111156103d2575f80fd5b6103de848285016102c3565b949350505050565b5f5b838110156104005781810151838201526020016103e8565b50505f910152565b602081525f82518060208401526104268160408501602087016103e6565b601f01601f19169190910160400192915050565b600181811c9082168061044e57607f821691505b60208210810361046c57634e487b7160e01b5f52602260045260245ffd5b50919050565b601f8211156104bb575f81815260208120601f850160051c810160208610156104985750805b601f850160051c820191505b818110156104b7578281556001016104a4565b5050505b505050565b815167ffffffffffffffff8111156104da576104da6102af565b6104ee816104e8845461043a565b84610472565b602080601f831160018114610521575f841561050a5750858301515b5f19600386901b1c1916600185901b1785556104b7565b5f85815260208120601f198616915b8281101561054f57888601518255948401946001909101908401610530565b508582101561056c57878501515f19600388901b60f8161c191681555b5050505050600190811b01905550565b5f8084546105898161043a565b600182811680156105a157600181146105b6576105e2565b60ff19841687528215158302870194506105e2565b885f526020805f205f5b858110156105d95781548a8201529084019082016105c0565b50505082870194505b5050505083516105f68183602088016103e6565b01949350505050565b5f83516106108184602088016103e6565b8351908301906105f68183602088016103e656fea2646970667358221220f309202363c98837ac915d593b8d2d14b6200951f96a93b7fb856ed5d3fefc2664736f6c63430008140033",
  "immutableReferences": {},
  "source": "// SPDX-License-Identifier: MIT\npragma solidity ^0.8.0;\nimport \"@openzeppelin/contracts/utils/Strings.sol\"; // For string operations\n\n\ncontract GestionChaines {\n    string public message;\n\n    function setMessage(string memory _message) public {\n        message = _message;\n    }\n\n    function getMessage() public view returns (string memory) {\n        return message;\n    }\n\n    function concatener(string memory a, string memory b) public pure returns (string memory) {\n        return string(abi.encodePacked(a, b));\n    }\n\n    function concatenerAvec(string memory _texte) public view returns (string memory) {\n        return string.concat(message, _texte);\n    }\n\n    function longueur(string memory s) public pure returns (uint) {\n        return bytes(s).length;\n    }\n\n    function comparer(string memory a, string memory b) public pure returns (bool) {\n        return keccak256(bytes(a)) == keccak256(bytes(b));\n    }\n}",
  "sourcePath": "C:\\Users\\Haita\\Downloads\\blockchain\\TP3-dApp\\TP3-dApp\\contracts\\StringManager.sol",
  "compiler": {
    "name": "solc",
    "version": "0.8.20+commit.a1b79de6.Emscripten.clang"
  },
  "schemaVersion": "3.4.16",
  "updatedAt": "2025-07-30T11:40:31.765Z",
  "networkType": "ethereum",
  "devdoc": {
    "kind": "dev",
    "methods": {},
    "version": 1
  },
  "userdoc": {
    "kind": "user",
    "methods": {},
    "version": 1
  }
}