{
  "contractName": "NumberStorage",
  "abi": [
    {
      "inputs": [
        {
          "internalType": "uint256[]",
          "name": "_nombres",
          "type": "uint256[]"
        }
      ],
      "stateMutability": "nonpayable",
      "type": "constructor"
    },
    {
      "inputs": [
        {
          "internalType": "uint256",
          "name": "",
          "type": "uint256"
        }
      ],
      "name": "nombres",
      "outputs": [
        {
          "internalType": "uint256",
          "name": "",
          "type": "uint256"
        }
      ],
      "stateMutability": "view",
      "type": "function",
      "constant": true
    },
    {
      "inputs": [
        {
          "internalType": "uint256",
          "name": "_nombre",
          "type": "uint256"
        }
      ],
      "name": "ajouterNombre",
      "outputs": [],
      "stateMutability": "nonpayable",
      "type": "function"
    },
    {
      "inputs": [
        {
          "internalType": "uint256",
          "name": "_index",
          "type": "uint256"
        }
      ],
      "name": "getElement",
      "outputs": [
        {
          "internalType": "uint256",
          "name": "",
          "type": "uint256"
        }
      ],
      "stateMutability": "view",
      "type": "function",
      "constant": true
    },
    {
      "inputs": [],
      "name": "afficheTableau",
      "outputs": [
        {
          "internalType": "uint256[]",
          "name": "",
          "type": "uint256[]"
        }
      ],
      "stateMutability": "view",
      "type": "function",
      "constant": true
    },
    {
      "inputs": [],
      "name": "calcularSomme",
      "outputs": [
        {
          "internalType": "uint256",
          "name": "",
          "type": "uint256"
        }
      ],
      "stateMutability": "view",
      "type": "function",
      "constant": true
    }
  ],
  "bytecode": "0x608060405234801561000f575f80fd5b5060405161048738038061048783398101604081905261002e916100b8565b8051610040905f906020840190610047565b5050610170565b828054828255905f5260205f20908101928215610080579160200282015b82811115610080578251825591602001919060010190610065565b5061008c929150610090565b5090565b5b8082111561008c575f8155600101610091565b634e487b7160e01b5f52604160045260245ffd5b5f60208083850312156100c9575f80fd5b82516001600160401b03808211156100df575f80fd5b818501915085601f8301126100f2575f80fd5b815181811115610104576101046100a4565b8060051b604051601f19603f83011681018181108582111715610129576101296100a4565b604052918252848201925083810185019188831115610146575f80fd5b938501935b828510156101645784518452938501939285019261014b565b98975050505050505050565b61030a8061017d5f395ff3fe608060405234801561000f575f80fd5b5060043610610055575f3560e01c80631f4440b01461005957806337a38208146100775780633a7d22bc1461008d5780637692fb5f146100a0578063bd92c667146100b3575b5f80fd5b6100616100f4565b60405161006e9190610221565b60405180910390f35b61007f610149565b60405190815260200161006e565b61007f61009b366004610264565b610196565b61007f6100ae366004610264565b610203565b6100f26100c1366004610264565b5f80546001810182559080527f290decd9548b62a8d60345a988386fc84ba6bc95484008f6362f93160ef3e5630155565b005b60605f80548060200260200160405190810160405280929190818152602001828054801561013f57602002820191905f5260205f20905b81548152602001906001019080831161012b575b5050505050905090565b5f80805b5f54811015610190575f81815481106101685761016861027b565b905f5260205f2001548261017c91906102a3565b915080610188816102bc565b91505061014d565b50919050565b5f805482106101e15760405162461bcd60e51b8152602060048201526013602482015272496e646578206f7574206f6620626f756e647360681b604482015260640160405180910390fd5b5f82815481106101f3576101f361027b565b905f5260205f2001549050919050565b5f8181548110610211575f80fd5b5f91825260209091200154905081565b602080825282518282018190525f9190848201906040850190845b818110156102585783518352928401929184019160010161023c565b50909695505050505050565b5f60208284031215610274575f80fd5b5035919050565b634e487b7160e01b5f52603260045260245ffd5b634e487b7160e01b5f52601160045260245ffd5b808201808211156102b6576102b661028f565b92915050565b5f600182016102cd576102cd61028f565b506001019056fea2646970667358221220d63af3a333ea7b28487987c775bdc6c393ea706377c3d71a33f3014612c2e2e464736f6c63430008140033",
  "immutableReferences": {},
  "source": "\n// SPDX-License-Identifier: MIT\npragma solidity ^0.8.0;\n\ncontract NumberStorage {\n    uint[] public nombres;\n\n    constructor(uint[] memory _nombres) {\n        nombres = _nombres;\n    }\n\n    function ajouterNombre(uint _nombre) public {\n        nombres.push(_nombre);\n    }\n\n    function getElement(uint _index) public view returns (uint) {\n        require(_index < nombres.length, \"Index out of bounds\");\n        return nombres[_index];\n    }\n\n    function afficheTableau() public view returns (uint[] memory) {\n        return nombres;\n    }\n\n    function calcularSomme() public view returns (uint) {\n        uint somme = 0;\n        for (uint i = 0; i < nombres.length; i++) {\n            somme += nombres[i];\n        }\n        return somme;\n    }\n}",
  "sourcePath": "C:\\Users\\Haita\\Downloads\\blockchain\\TP3-dApp\\TP3-dApp\\contracts\\NumberStorage.sol",
  "compiler": {
    "name": "solc",
    "version": "0.8.20+commit.a1b79de6.Emscripten.clang"
  },
  "schemaVersion": "3.4.16",
  "updatedAt": "2025-07-30T11:40:31.823Z",
  "networkType": "ethereum",
  "devdoc": {
    "kind": "dev",
    "methods": {},
    "version": 1
  },
  "userdoc": {
    "kind": "user",
    "methods": {},
    "version": 1
  }
}