{
  "contractName": "Payment",
  "abi": [
    {
      "inputs": [
        {
          "internalType": "address",
          "name": "_recipient",
          "type": "address"
        }
      ],
      "stateMutability": "nonpayable",
      "type": "constructor"
    },
    {
      "inputs": [],
      "name": "recipient",
      "outputs": [
        {
          "internalType": "address",
          "name": "",
          "type": "address"
        }
      ],
      "stateMutability": "view",
      "type": "function",
      "constant": true
    },
    {
      "stateMutability": "payable",
      "type": "receive",
      "payable": true
    },
    {
      "inputs": [],
      "name": "receivePayment",
      "outputs": [],
      "stateMutability": "payable",
      "type": "function",
      "payable": true
    },
    {
      "inputs": [],
      "name": "withdraw",
      "outputs": [],
      "stateMutability": "nonpayable",
      "type": "function"
    }
  ],
  "bytecode": "0x608060405234801561000f575f80fd5b5060405161023938038061023983398101604081905261002e91610052565b5f80546001600160a01b0319166001600160a01b039290921691909117905561007f565b5f60208284031215610062575f80fd5b81516001600160a01b0381168114610078575f80fd5b9392505050565b6101ad8061008c5f395ff3fe608060405260043610610036575f3560e01c80633ccfd60b1461004157806366d003ac14610057578063835c19f314610091575f80fd5b3661003d57005b5f80fd5b34801561004c575f80fd5b50610055610099565b005b348015610062575f80fd5b505f54610075906001600160a01b031681565b6040516001600160a01b03909116815260200160405180910390f35b610055610131565b5f546001600160a01b031633146100f75760405162461bcd60e51b815260206004820152601b60248201527f4f6e6c7920726563697069656e742063616e207769746864726177000000000060448201526064015b60405180910390fd5b5f80546040516001600160a01b03909116914780156108fc02929091818181858888f1935050505015801561012e573d5f803e3d5ffd5b50565b5f34116101755760405162461bcd60e51b81526020600482015260126024820152710416d6f756e74206d757374206265203e20360741b60448201526064016100ee565b56fea26469706673582212202a46ce91916e85b4f4d699decb7278453ebc6bf459f028d644d1e89b4ffb9de764736f6c63430008140033",
  "immutableReferences": {},
  "source": "// SPDX-License-Identifier: MIT\npragma solidity ^0.8.0;\n\ncontract Payment {\n    address public recipient;\n\n    constructor(address _recipient) {\n        recipient = _recipient;\n    }\n\n    receive() external payable {}\n\n    function receivePayment() public payable {\n        require(msg.value > 0, \"Amount must be > 0\");\n    }\n\n    function withdraw() public {\n        require(msg.sender == recipient, \"Only recipient can withdraw\");\n        payable(recipient).transfer(address(this).balance);\n    }\n}",
  "sourcePath": "C:\\Users\\Haita\\Downloads\\blockchain\\TP3-dApp\\TP3-dApp\\contracts\\Payment.sol",
  "compiler": {
    "name": "solc",
    "version": "0.8.20+commit.a1b79de6.Emscripten.clang"
  },
  "schemaVersion": "3.4.16",
  "updatedAt": "2025-07-30T11:40:31.857Z",
  "networkType": "ethereum",
  "devdoc": {
    "kind": "dev",
    "methods": {},
    "version": 1
  },
  "userdoc": {
    "kind": "user",
    "methods": {},
    "version": 1
  }
}