{
  "contractName": "PositiveCheck",
  "abi": [
    {
      "inputs": [
        {
          "internalType": "int256",
          "name": "_nombre",
          "type": "int256"
        }
      ],
      "name": "estPositif",
      "outputs": [
        {
          "internalType": "bool",
          "name": "",
          "type": "bool"
        }
      ],
      "stateMutability": "pure",
      "type": "function",
      "constant": true
    }
  ],
  "bytecode": "0x6080604052348015600e575f80fd5b50609b8061001b5f395ff3fe6080604052348015600e575f80fd5b50600436106026575f3560e01c8063fa046abd14602a575b5f80fd5b603b6035366004604f565b5f131590565b604051901515815260200160405180910390f35b5f60208284031215605e575f80fd5b503591905056fea2646970667358221220a8934beb5aee3d5ed80cc07d22633fce7028e8ed7776b8535490a77e4cf850f364736f6c63430008140033",
  "immutableReferences": {},
  "source": "// SPDX-License-Identifier: MIT\n\npragma solidity ^0.8.0;\n\ncontract PositiveCheck {\n    function estPositif(int256 _nombre) public pure returns (bool) {\n        return _nombre >= 0;\n    }\n}",
  "sourcePath": "C:\\Users\\Haita\\Downloads\\blockchain\\TP3-dApp\\TP3-dApp\\contracts\\PositiveCheck.sol",
  "compiler": {
    "name": "solc",
    "version": "0.8.20+commit.a1b79de6.Emscripten.clang"
  },
  "schemaVersion": "3.4.16",
  "updatedAt": "2025-07-30T11:40:31.814Z",
  "networkType": "ethereum",
  "devdoc": {
    "kind": "dev",
    "methods": {},
    "version": 1
  },
  "userdoc": {
    "kind": "user",
    "methods": {},
    "version": 1
  }
}