{
  "contractName": "Rectangle",
  "abi": [
    {
      "inputs": [
        {
          "internalType": "uint256",
          "name": "_x",
          "type": "uint256"
        },
        {
          "internalType": "uint256",
          "name": "_y",
          "type": "uint256"
        },
        {
          "internalType": "uint256",
          "name": "_length",
          "type": "uint256"
        },
        {
          "internalType": "uint256",
          "name": "_width",
          "type": "uint256"
        }
      ],
      "stateMutability": "nonpayable",
      "type": "constructor"
    },
    {
      "inputs": [],
      "name": "afficheXY",
      "outputs": [
        {
          "internalType": "uint256",
          "name": "",
          "type": "uint256"
        },
        {
          "internalType": "uint256",
          "name": "",
          "type": "uint256"
        }
      ],
      "stateMutability": "view",
      "type": "function",
      "constant": true
    },
    {
      "inputs": [
        {
          "internalType": "uint256",
          "name": "dx",
          "type": "uint256"
        },
        {
          "internalType": "uint256",
          "name": "dy",
          "type": "uint256"
        }
      ],
      "name": "deplacerForme",
      "outputs": [],
      "stateMutability": "nonpayable",
      "type": "function"
    },
    {
      "inputs": [],
      "name": "la",
      "outputs": [
        {
          "internalType": "uint256",
          "name": "",
          "type": "uint256"
        }
      ],
      "stateMutability": "view",
      "type": "function",
      "constant": true
    },
    {
      "inputs": [],
      "name": "lo",
      "outputs": [
        {
          "internalType": "uint256",
          "name": "",
          "type": "uint256"
        }
      ],
      "stateMutability": "view",
      "type": "function",
      "constant": true
    },
    {
      "inputs": [],
      "name": "x",
      "outputs": [
        {
          "internalType": "uint256",
          "name": "",
          "type": "uint256"
        }
      ],
      "stateMutability": "view",
      "type": "function",
      "constant": true
    },
    {
      "inputs": [],
      "name": "y",
      "outputs": [
        {
          "internalType": "uint256",
          "name": "",
          "type": "uint256"
        }
      ],
      "stateMutability": "view",
      "type": "function",
      "constant": true
    },
    {
      "inputs": [],
      "name": "surface",
      "outputs": [
        {
          "internalType": "uint256",
          "name": "",
          "type": "uint256"
        }
      ],
      "stateMutability": "view",
      "type": "function",
      "constant": true
    },
    {
      "inputs": [],
      "name": "afficheInfos",
      "outputs": [
        {
          "internalType": "string",
          "name": "",
          "type": "string"
        }
      ],
      "stateMutability": "pure",
      "type": "function",
      "constant": true
    },
    {
      "inputs": [],
      "name": "afficheDimensions",
      "outputs": [
        {
          "internalType": "uint256",
          "name": "",
          "type": "uint256"
        },
        {
          "internalType": "uint256",
          "name": "",
          "type": "uint256"
        }
      ],
      "stateMutability": "view",
      "type": "function",
      "constant": true
    },
    {
      "inputs": [],
      "name": "afficheLoLa",
      "outputs": [
        {
          "internalType": "uint256",
          "name": "",
          "type": "uint256"
        },
        {
          "internalType": "uint256",
          "name": "",
          "type": "uint256"
        }
      ],
      "stateMutability": "view",
      "type": "function",
      "constant": true
    }
  ],
  "bytecode": "0x608060405234801561000f575f80fd5b5060405161031d38038061031d83398101604081905261002e91610044565b5f93909355600191909155600255600355610077565b5f805f8060808587031215610057575f80fd5b505082516020840151604085015160609095015191969095509092509050565b610299806100845f395ff3fe608060405234801561000f575f80fd5b506004361061009b575f3560e01c806390c33c3f1161006357806390c33c3f146100ef5780639361c232146100f8578063a56dfe4a1461010d578063cd514e4014610116578063cfa8d7a414610120575f80fd5b80630c55699c1461009f5780630e94ba83146100ba57806365936c6d146100c25780637780c14f146100de57806383a443a6146100e7575b5f80fd5b6100a75f5481565b6040519081526020015b60405180910390f35b6100a7610156565b6002546003545b604080519283526020830191909152016100b1565b6100a760025481565b6100c961016c565b6100a760035481565b61010b6101063660046101b4565b610183565b005b6100a760015481565b5f546001546100c9565b60408051808201825260148152734a65207375697320756e2052656374616e676c6560601b602082015290516100b191906101d4565b5f6003546002546101679190610233565b905090565b5f8061017b6002546003549091565b915091509091565b815f808282546101939190610250565b925050819055508060015f8282546101ab9190610250565b90915550505050565b5f80604083850312156101c5575f80fd5b50508035926020909101359150565b5f6020808352835180828501525f5b818110156101ff578581018301518582016040015282016101e3565b505f604082860101526040601f19601f8301168501019250505092915050565b634e487b7160e01b5f52601160045260245ffd5b808202811582820484141761024a5761024a61021f565b92915050565b8082018082111561024a5761024a61021f56fea2646970667358221220c778be2f6ef4eced76668b00e7067f465f45ce1b7ec8fcf538c2e4451978798664736f6c63430008140033",
  "immutableReferences": {},
  "source": "// SPDX-License-Identifier: MIT\npragma solidity ^0.8.0;\n\nimport \"./Shape.sol\";\n\ncontract Rectangle is Forme {\n    uint public lo; // Length\n    uint public la; // Width\n\n    constructor(uint _x, uint _y, uint _length, uint _width) Forme(_x, _y) {\n        lo = _length;\n        la = _width;\n    }\n\n    // Calculates surface area (length * width)\n    function surface() public view override returns (uint) {\n        return lo * la;\n    }\n\n    // Returns rectangle-specific info\n    function afficheInfos() public pure override returns (string memory) {\n        return \"Je suis un Rectangle\";\n    }\n\n    // Returns dimensions (length and width)\n    function afficheDimensions() public view returns (uint, uint) {\n        return (lo, la);\n    }\n\n    // Alternative name for dimensions (compatibility)\n    function afficheLoLa() public view returns (uint, uint) {\n        return afficheDimensions();\n    }\n}",
  "sourcePath": "C:\\Users\\Haita\\Downloads\\blockchain\\TP3-dApp\\TP3-dApp\\contracts\\Rectangle.sol",
  "compiler": {
    "name": "solc",
    "version": "0.8.20+commit.a1b79de6.Emscripten.clang"
  },
  "schemaVersion": "3.4.16",
  "updatedAt": "2025-07-30T11:40:31.852Z",
  "networkType": "ethereum",
  "devdoc": {
    "kind": "dev",
    "methods": {},
    "version": 1
  },
  "userdoc": {
    "kind": "user",
    "methods": {},
    "version": 1
  }
}